:100000000C944E000C946D000C946D000C946D00DB
:100010000C946D000C946D000C946D000C946D00AC
:100020000C946D000C946D000C946D000C946D009C
:100030000C946D000C94EB000C946D000C946D000E
:100040000C946D000C946D000C946D000C946D007C
:100050000C946D000C946D000C946D000C946D006C
:100060000C946D000C946D000C946D000C946D005C
:100070000C946D000C946D000C946D000C946D004C
:100080000C946D000C946D000C946D00D901E0018E
:1000900084020C023D020C023D026E0211241FBEBE
:1000A000CFEFD0E4DEBFCDBF11E0A0E0B1E0E4E4EB
:1000B000F6E000E00BBF02C007900D92A231B1073D
:1000C000D9F721E0A2E1B1E001C01D92AC31B20745
:1000D000E1F70E94E3020C9420030C940000CF93FC
:1000E000DF9300D000D0CDB7DEB769837A838B83EE
:1000F0009C8389819A81AB81BC818093000190931C
:100100000101A0930201B09303018091000190913D
:100110000101A0910201B09103018093130190931A
:100120001401A0931501B093160100000F900F90D9
:100130000F900F90DF91CF910895CF93DF93CDB7BC
:10014000DEB781E890E02BE0FC01208388E890E0B6
:100150002DE730E0FC01318320838FE690E022E040
:10016000FC01208384E890E0FC01118210828091E0
:10017000000190910101A0910201B09103018093CF
:10018000130190931401A0931501B09316018FE50C
:1001900090E02FE530E0F90120812068FC01208308
:1001A0000000DF91CF910895CF93DF93CDB7DEB7F5
:1001B00081E890E0FC0110820000DF91CF9108956A
:1001C000CF93DF93CDB7DEB781E0809312010000BB
:1001D000DF91CF9108951F920F9200905F000F92D0
:1001E000112400905B000F922F933F934F935F93E6
:1001F0006F937F938F939F93AF93BF93EF93FF93EF
:10020000CF93DF93CDB7DEB78091130190911401A6
:10021000A0911501B09116010197A109B109809330
:10022000130190931401A0931501B09316018091CE
:10023000130190911401A0911501B0911601892B21
:100240008A2B8B2B91F40E94E00080910001909109
:100250000101A0910201B0910301809313019093D9
:100260001401A0931501B09316010000DF91CF9106
:10027000FF91EF91BF91AF919F918F917F916F917E
:100280005F914F913F912F910F9000925B000F90E3
:1002900000925F000F901F901895CF93DF9300D0CE
:1002A0001F92CDB7DEB789837B836A8389818A30C9
:1002B00031F48A819B81BC018DE00E944D0180EC6C
:1002C00090E0FC018081882F90E080729927892B33
:1002D000B1F386EC90E02981FC01208380E090E07E
:1002E0000F900F900F90DF91CF910895CF93DF93F0
:1002F00000D01F92CDB7DEB78B831A82198227C038
:1003000088E290E028E0FC01208388E290E028E287
:1003100030E0F9012081422F2B81222F30E009802B
:1003200002C0359527950A94E2F72170242BFC0131
:10033000208388E290E028E230E0F9012081226009
:10034000FC01208389819A8101969A83898389811E
:100350009A810897ACF288E290E028E230E0F90157
:1003600020812460FC01208388E290E0FC0110825F
:1003700000000F900F900F90DF91CF910895CF93D1
:10038000DF93CDB7DEB780911A0190911B01CC01AC
:10039000A0E0B0E040E050E027E030E0841B950BA7
:1003A0002817390708F4DCC08A5B9F4FFC010C94C6
:1003B000170381E090E090931B0180931A01D0C055
:1003C00080911701882359F080911801882339F012
:1003D00087E090E090931B0180931A01C1C0809147
:1003E0001701882339F085E090E090931B018093FA
:1003F0001A01B6C080911801882339F086E090E098
:1004000090931B0180931A01ABC081E090E0909320
:100410001B0180931A01A4C080911701882359F011
:1004200080911801882339F087E090E090931B01B8
:1004300080931A0121C080911701882359F480917B
:100440001801882339F481E090E090931B01809398
:100450001A0112C080911801882339F086E090E0DB
:1004600090931B0180931A017BC083E090E09093EE
:100470001B0180931A0174C073C0809117018823F7
:1004800059F080911801882339F087E090E090932B
:100490001B0180931A0121C080911701882359F410
:1004A00080911801882339F481E090E090931B013A
:1004B00080931A0112C080911701882339F085E0DA
:1004C00090E090931B0180931A014AC084E090E071
:1004D00090931B0180931A0143C042C08091170181
:1004E000882359F480911801882339F481E090E041
:1004F00090931B0180931A0133C082E090E09093A7
:100500001B0180931A012CC080911701882359F494
:1005100080911801882339F481E090E090931B01C9
:1005200080931A011CC080911701882339F085E05F
:1005300090E090931B0180931A0111C080911801E3
:10054000882339F086E090E090931B0180931A0194
:1005500006C082E090E090931B0180931A01000096
:1005600080911A0190911B018530910561F08630D0
:10057000910518F40197F0F022C08630910569F0DA
:100580000797A9F017C0809119018F3FA9F08091BA
:1005900019018F5F809319010FC080911901882381
:1005A00069F08091190181508093190107C0109260
:1005B000190105C0000003C0000001C000000000D8
:1005C000DF91CF910895CF93DF93CDB7DEB781E26E
:1005D00090E0FC01108282E290E02FEFFC0120838A
:1005E00087E290E02FEFFC01208388E290E0FC019D
:1005F000108210921B0110921A0180E290E0FC011F
:10060000808181708093170180E290E0FC018081FD
:10061000827080931801809118018695809318014B
:100620000E94BF01809119010E947601E6CFEE0F72
:10063000FF1F0024001C0BBE0790F691E02D0994CB
:04064000F894FFCF5C
:100644000100000000000002000000004D01000055
:020654000000A4
:00000001FF
