:100000000C9446000C945D000C945D000C945D0013
:100010000C945D000C945D000C945D000C945D00EC
:100020000C945D000C945D000C945D000C945D00DC
:100030000C945D000C945D000C945D000C945D00CC
:100040000C945D000C945D000C945D000C945D00BC
:100050000C945D000C945D000C945D000C945D00AC
:100060000C945D000C945D000C945D000C945D009C
:100070000C945D000C945D000C945D000C945D008C
:100080000C945D000C945D000C945D0011241FBE67
:10009000CFEFD0E4DEBFCDBF11E0A0E0B1E0E6EDF0
:1000A000F1E000E00BBF02C007900D92AE30B10747
:1000B000D9F70E9488000C94E9000C940000CF93BB
:1000C000DF9300D01F92CDB7DEB789837B836A832D
:1000D00089818A3031F48A819B81BC018DE00E9444
:1000E0005F0080EC90E0FC018081882F90E08072BE
:1000F0009927892BB1F386EC90E02981FC012083BC
:1001000080E090E00F900F900F90DF91CF910895D5
:10011000CF93DF9300D0CDB7DEB781E290E0FC0152
:10012000108282E290E02FEFFC01208387E290E0D2
:100130002FEFFC01208388E290E0FC0110821A82FC
:10014000198280E290E0FC01808180958F708A8323
:100150008A81882319F480E4898335C08A818130BB
:1001600019F08A81823019F480E689832CC08A8153
:10017000833019F08A81843019F480E7898323C0A1
:100180008A81853019F08A81863019F488E3898361
:100190001AC08A81873031F08A81883019F08A81CB
:1001A000893019F48CE389830EC08A818A3031F05A
:1001B0008A818B3019F08A818C3019F48EE389831F
:1001C00002C08FE3898388E290E02981FC012083CB
:0601D000B8CFF894FFCF48
:0E01D60000000002000000005F0000000000BA
:00000001FF
