:100000000C944D000C946C000C946C000C946C00DF
:100010000C946C000C946C000C946C000C946C00B0
:100020000C946C000C946C000C946C000C946C00A0
:100030000C946C000C94EA000C946C000C946C0012
:100040000C946C000C946C000C946C000C946C0080
:100050000C946C000C946C000C946C000C946C0070
:100060000C946C000C946C000C946C000C946C0060
:100070000C946C000C946C000C946C000C946C0050
:100080000C946C000C946C000C946C00D801DF0193
:10009000F7010F0227023F02570211241FBECFEFC4
:1000A000D0E4DEBFCDBF11E0A0E0B1E0E6EBF5E0CB
:1000B00000E00BBF02C007900D92A231B107D9F743
:1000C00021E0A2E1B1E001C01D92AA31B207E1F73F
:1000D0000E94AF020C94D9020C940000CF93DF93DE
:1000E00000D000D0CDB7DEB769837A838B839C8341
:1000F00089819A81AB81BC81809300019093010139
:10010000A0930201B093030180910001909101013D
:10011000A0910201B0910301809313019093140107
:10012000A0931501B093160100000F900F900F904F
:100130000F90DF91CF910895CF93DF93CDB7DEB7C6
:1001400081E890E02BE0FC01208388E890E02DE737
:1001500030E0FC01318320838FE690E022E0FC0157
:10016000208384E890E0FC011182108280910001DC
:1001700090910101A0910201B091030180931301BC
:1001800090931401A0931501B09316018FE590E0B0
:100190002FE530E0F90120812068FC012083000078
:1001A000DF91CF910895CF93DF93CDB7DEB781E88C
:1001B00090E0FC0110820000DF91CF910895CF9371
:1001C000DF93CDB7DEB781E0809312010000DF91AD
:1001D000CF9108951F920F9200905F000F9211240B
:1001E00000905B000F922F933F934F935F936F9319
:1001F0007F938F939F93AF93BF93EF93FF93CF938F
:10020000DF93CDB7DEB78091130190911401A091D7
:100210001501B09116010197A109B109809313014D
:1002200090931401A0931501B093160180911301CE
:1002300090911401A0911501B0911601892B8A2B80
:100240008B2B91F40E94DF008091000190910101BD
:10025000A0910201B09103018093130190931401C6
:10026000A0931501B09316010000DF91CF91FF918B
:10027000EF91BF91AF919F918F917F916F915F911E
:100280004F913F912F910F9000925B000F90009241
:100290005F000F901F901895CF93DF9300D01F92AF
:1002A000CDB7DEB789837B836A8389818A3031F455
:1002B0008A819B81BC018DE00E944C0180EC90E022
:1002C000FC018081882F90E080729927892BB1F3FF
:1002D00086EC90E02981FC01208380E090E00F9083
:1002E0000F900F90DF91CF910895CF93DF9300D0BF
:1002F0001F92CDB7DEB78B831A82198227C088E29E
:1003000090E028E0FC01208388E290E028E230E0E1
:10031000F9012081422F2B81222F30E0098002C079
:10032000359527950A94E2F72170242BFC01208350
:1003300088E290E028E230E0F90120812260FC01AF
:10034000208389819A8101969A83898389819A8100
:100350000897ACF288E290E028E230E0F9012081D1
:100360002460FC01208388E290E0FC011082000000
:100370000F900F900F90DF91CF910895CF93DF935F
:10038000CDB7DEB78091180190911901CC01A0E0A2
:10039000B0E040E050E026E030E0841B950B2817E9
:1003A000390708F49CC08A5B9F4FFC010C94D00273
:1003B00081E090E0909319018093180190C080E251
:1003C00090E0FC018081882F90E081709927892B33
:1003D00039F482E090E090931901809318017FC076
:1003E00081E090E0909319018093180178C080E239
:1003F00090E0FC018081882F90E081709927892B03
:1004000039F083E090E0909319018093180167C060
:1004100082E090E0909319018093180160C080E21F
:1004200090E0FC018081882F90E081709927892BD2
:1004300039F484E090E090931901809318014FC043
:1004400083E090E0909319018093180148C080E206
:1004500090E0FC018081882F90E081709927892BA2
:1004600039F085E090E0909319018093180137C02E
:1004700084E090E0909319018093180130C080E2ED
:1004800090E0FC018081882F90E081709927892B72
:1004900039F486E090E090931901809318011FC011
:1004A00085E090E0909319018093180118C080E2D4
:1004B00090E0FC018081882F90E081709927892B42
:1004C00039F081E090E0909319018093180106C003
:1004D00086E090E0909319018093180100008091CC
:1004E0001801909119018330910591F184309105A3
:1004F00030F48130910561F0029791F02CC0853085
:10050000910541F18530910598F00697C9F023C017
:1005100080E380931701809117010E9475011BC031
:1005200083E080931701809117010E94750113C029
:100530008CE080931701809117010E9475010AC019
:1005400080E380931701809117010E94750103C019
:10055000000001C000000000DF91CF910895CF930B
:10056000DF93CDB7DEB781E290E0FC01108282E23A
:1005700090E02FEFFC01208387E290E02FEFFC0159
:10058000208388E290E0FC01108210921901109201
:100590001801809117010E9475010E94BE01FDCFD4
:1005A000EE0FFF1F0024001C0BBE0790F691E02DFC
:0605B0000994F894FFCF4E
:1005B6000100000000000002000000004C010000E5
:0205C600000033
:00000001FF
