:100000000C9446000C945D000C945D000C945D0013
:100010000C945D000C945D000C945D000C945D00EC
:100020000C945D000C945D000C945D000C945D00DC
:100030000C945D000C945D000C945D000C945D00CC
:100040000C945D000C945D000C945D000C945D00BC
:100050000C945D000C945D000C945D000C945D00AC
:100060000C945D000C945D000C945D000C945D009C
:100070000C945D000C945D000C945D000C945D008C
:100080000C945D000C945D000C945D0011241FBE67
:10009000CFEFD0E4DEBFCDBF11E0A0E0B1E0EAEFEA
:1000A000F1E000E00BBF02C007900D92AE30B10747
:1000B000D9F70E9488000C94FB000C940000CF93A9
:1000C000DF9300D01F92CDB7DEB789837B836A832D
:1000D00089818A3031F48A819B81BC018DE00E9444
:1000E0005F0080EC90E0FC018081882F90E08072BE
:1000F00099270097B1F386EC90E02981FC012083D9
:1001000080E090E00F900F900F90DF91CF910895D5
:10011000CF93DF9300D000D01F92CDB7DEB781E23E
:1001200090E0FC01108282E290E02FEFFC0120833E
:1001300084E290E0FC01108285E290E02FEFFC0168
:10014000208387E290E0FC01108288E290E02FEFAC
:10015000FC0120838AE290E02FEFFC0120838BE2F8
:1001600090E0FC0110821A821B821C821D8219827F
:1001700080E290E0FC0180818B8383E290E0FC01CF
:1001800080818C8386E290E0FC0180818D839B815D
:100190008C81980F8D81890F8A838A818E3820F017
:1001A00089818160898303C089818E7F89838B8166
:1001B000282F30E08D81882F90E0A901481B590B32
:1001C000CA0199231CF49195819591098235910575
:1001D00024F089818260898303C089818D7F89832E
:1001E0008A818C7F8A838BE290E03A812981232B5C
:0A01F000FC012083BDCFF894FFCF7F
:0E01FA0000000002000000005F000000000096
:00000001FF
